{
  "contractName": "UploadEhr",
  "abi": [
    {
      "inputs": [
        {
          "internalType": "address",
          "name": "",
          "type": "address"
        },
        {
          "internalType": "address",
          "name": "",
          "type": "address"
        }
      ],
      "name": "patientToDoctorPermission",
      "outputs": [
        {
          "internalType": "bool",
          "name": "",
          "type": "bool"
        }
      ],
      "stateMutability": "view",
      "type": "function",
      "constant": true
    },
    {
      "inputs": [
        {
          "internalType": "string",
          "name": "ipfsHash",
          "type": "string"
        }
      ],
      "name": "uploadRecord",
      "outputs": [],
      "stateMutability": "nonpayable",
      "type": "function"
    },
    {
      "inputs": [
        {
          "internalType": "string",
          "name": "_timeStamp",
          "type": "string"
        },
        {
          "internalType": "string",
          "name": "_medicalRecordHash",
          "type": "string"
        }
      ],
      "name": "addRecord",
      "outputs": [],
      "stateMutability": "nonpayable",
      "type": "function"
    },
    {
      "inputs": [],
      "name": "getMyRecords",
      "outputs": [
        {
          "components": [
            {
              "internalType": "string",
              "name": "timeStamp",
              "type": "string"
            },
            {
              "internalType": "string",
              "name": "medicalRecordHash",
              "type": "string"
            }
          ],
          "internalType": "struct UploadEhr.PatientRecord[]",
          "name": "",
          "type": "tuple[]"
        }
      ],
      "stateMutability": "view",
      "type": "function",
      "constant": true
    },
    {
      "inputs": [],
      "name": "getRecords",
      "outputs": [
        {
          "components": [
            {
              "internalType": "string",
              "name": "timeStamp",
              "type": "string"
            },
            {
              "internalType": "string",
              "name": "medicalRecordHash",
              "type": "string"
            }
          ],
          "internalType": "struct UploadEhr.PatientRecord[]",
          "name": "",
          "type": "tuple[]"
        }
      ],
      "stateMutability": "view",
      "type": "function",
      "constant": true
    },
    {
      "inputs": [
        {
          "internalType": "address",
          "name": "doctor",
          "type": "address"
        }
      ],
      "name": "grantAccessToDoctor",
      "outputs": [],
      "stateMutability": "nonpayable",
      "type": "function"
    },
    {
      "inputs": [
        {
          "internalType": "address",
          "name": "doctor",
          "type": "address"
        }
      ],
      "name": "revokeAccessFromDoctor",
      "outputs": [],
      "stateMutability": "nonpayable",
      "type": "function"
    },
    {
      "inputs": [
        {
          "internalType": "address",
          "name": "patient",
          "type": "address"
        }
      ],
      "name": "getPatientRecords",
      "outputs": [
        {
          "components": [
            {
              "internalType": "string",
              "name": "timeStamp",
              "type": "string"
            },
            {
              "internalType": "string",
              "name": "medicalRecordHash",
              "type": "string"
            }
          ],
          "internalType": "struct UploadEhr.PatientRecord[]",
          "name": "",
          "type": "tuple[]"
        }
      ],
      "stateMutability": "view",
      "type": "function",
      "constant": true
    }
  ],
  "bytecode": "0x608060405234801561001057600080fd5b50611653806100206000396000f3fe608060405234801561001057600080fd5b50600436106100885760003560e01c80637fb869bb1161005b5780637fb869bb146101255780638eff3c2914610141578063c95962481461015f578063e76637ce1461017b57610088565b806318bd48471461008d5780631c8e251c146100bd578063629e559d146100d957806369da68dc146100f5575b600080fd5b6100a760048036038101906100a29190610c83565b610199565b6040516100b49190610e46565b60405180910390f35b6100d760048036038101906100d29190610c83565b610423565b005b6100f360048036038101906100ee9190610c83565b6104ba565b005b61010f600480360381019061010a9190610e68565b610552565b60405161011c9190610ec3565b60405180910390f35b61013f600480360381019061013a9190611013565b610581565b005b610149610641565b6040516101569190610e46565b60405180910390f35b6101796004803603810190610174919061105c565b610800565b005b6101836108b4565b6040516101909190610e46565b60405180910390f35b6060600160008373ffffffffffffffffffffffffffffffffffffffff1673ffffffffffffffffffffffffffffffffffffffff16815260200190815260200160002060003373ffffffffffffffffffffffffffffffffffffffff1673ffffffffffffffffffffffffffffffffffffffff16815260200190815260200160002060009054906101000a900460ff16610264576040517f08c379a000000000000000000000000000000000000000000000000000000000815260040161025b90611157565b60405180910390fd5b6000808373ffffffffffffffffffffffffffffffffffffffff1673ffffffffffffffffffffffffffffffffffffffff168152602001908152602001600020805480602002602001604051908101604052809291908181526020016000905b8282101561041857838290600052602060002090600202016040518060400160405290816000820180546102f5906111a6565b80601f0160208091040260200160405190810160405280929190818152602001828054610321906111a6565b801561036e5780601f106103435761010080835404028352916020019161036e565b820191906000526020600020905b81548152906001019060200180831161035157829003601f168201915b50505050508152602001600182018054610387906111a6565b80601f01602080910402602001604051908101604052809291908181526020018280546103b3906111a6565b80156104005780601f106103d557610100808354040283529160200191610400565b820191906000526020600020905b8154815290600101906020018083116103e357829003601f168201915b505050505081525050815260200190600101906102c2565b505050509050919050565b60018060003373ffffffffffffffffffffffffffffffffffffffff1673ffffffffffffffffffffffffffffffffffffffff16815260200190815260200160002060008373ffffffffffffffffffffffffffffffffffffffff1673ffffffffffffffffffffffffffffffffffffffff16815260200190815260200160002060006101000a81548160ff02191690831515021790555050565b6000600160003373ffffffffffffffffffffffffffffffffffffffff1673ffffffffffffffffffffffffffffffffffffffff16815260200190815260200160002060008373ffffffffffffffffffffffffffffffffffffffff1673ffffffffffffffffffffffffffffffffffffffff16815260200190815260200160002060006101000a81548160ff02191690831515021790555050565b60016020528160005260406000206020528060005260406000206000915091509054906101000a900460ff1681565b600061058b610a73565b9050600060405180604001604052808381526020018481525090506000803373ffffffffffffffffffffffffffffffffffffffff1673ffffffffffffffffffffffffffffffffffffffff1681526020019081526020016000208190806001815401808255809150506001900390600052602060002090600202016000909190919091506000820151816000019081610623919061138d565b506020820151816001019081610639919061138d565b505050505050565b60606000803373ffffffffffffffffffffffffffffffffffffffff1673ffffffffffffffffffffffffffffffffffffffff168152602001908152602001600020805480602002602001604051908101604052809291908181526020016000905b828210156107f757838290600052602060002090600202016040518060400160405290816000820180546106d4906111a6565b80601f0160208091040260200160405190810160405280929190818152602001828054610700906111a6565b801561074d5780601f106107225761010080835404028352916020019161074d565b820191906000526020600020905b81548152906001019060200180831161073057829003601f168201915b50505050508152602001600182018054610766906111a6565b80601f0160208091040260200160405190810160405280929190818152602001828054610792906111a6565b80156107df5780601f106107b4576101008083540402835291602001916107df565b820191906000526020600020905b8154815290600101906020018083116107c257829003601f168201915b505050505081525050815260200190600101906106a1565b50505050905090565b600060405180604001604052808481526020018381525090506000803373ffffffffffffffffffffffffffffffffffffffff1673ffffffffffffffffffffffffffffffffffffffff1681526020019081526020016000208190806001815401808255809150506001900390600052602060002090600202016000909190919091506000820151816000019081610896919061138d565b5060208201518160010190816108ac919061138d565b505050505050565b60606000803373ffffffffffffffffffffffffffffffffffffffff1673ffffffffffffffffffffffffffffffffffffffff168152602001908152602001600020805480602002602001604051908101604052809291908181526020016000905b82821015610a6a5783829060005260206000209060020201604051806040016040529081600082018054610947906111a6565b80601f0160208091040260200160405190810160405280929190818152602001828054610973906111a6565b80156109c05780601f10610995576101008083540402835291602001916109c0565b820191906000526020600020905b8154815290600101906020018083116109a357829003601f168201915b505050505081526020016001820180546109d9906111a6565b80601f0160208091040260200160405190810160405280929190818152602001828054610a05906111a6565b8015610a525780601f10610a2757610100808354040283529160200191610a52565b820191906000526020600020905b815481529060010190602001808311610a3557829003601f168201915b50505050508152505081526020019060010190610914565b50505050905090565b60606000429050610a8381610a89565b91505090565b606060008203610ad0576040518060400160405280600181526020017f30000000000000000000000000000000000000000000000000000000000000008152509050610c0c565b600082905060005b60008214610b02578080610aeb9061148e565b915050600a82610afb9190611505565b9150610ad8565b60008167ffffffffffffffff811115610b1e57610b1d610ee8565b5b6040519080825280601f01601f191660200182016040528015610b505781602001600182028036833780820191505090505b50905060008290505b60008614610c0457600181610b6e9190611536565b90506000600a8088610b809190611505565b610b8a919061156a565b87610b959190611536565b6030610ba191906115b9565b905060008160f81b905080848481518110610bbf57610bbe6115ee565b5b60200101907effffffffffffffffffffffffffffffffffffffffffffffffffffffffffffff1916908160001a905350600a88610bfb9190611505565b97505050610b59565b819450505050505b919050565b6000604051905090565b600080fd5b600080fd5b600073ffffffffffffffffffffffffffffffffffffffff82169050919050565b6000610c5082610c25565b9050919050565b610c6081610c45565b8114610c6b57600080fd5b50565b600081359050610c7d81610c57565b92915050565b600060208284031215610c9957610c98610c1b565b5b6000610ca784828501610c6e565b91505092915050565b600081519050919050565b600082825260208201905092915050565b6000819050602082019050919050565b600081519050919050565b600082825260208201905092915050565b60005b83811015610d16578082015181840152602081019050610cfb565b60008484015250505050565b6000601f19601f8301169050919050565b6000610d3e82610cdc565b610d488185610ce7565b9350610d58818560208601610cf8565b610d6181610d22565b840191505092915050565b60006040830160008301518482036000860152610d898282610d33565b91505060208301518482036020860152610da38282610d33565b9150508091505092915050565b6000610dbc8383610d6c565b905092915050565b6000602082019050919050565b6000610ddc82610cb0565b610de68185610cbb565b935083602082028501610df885610ccc565b8060005b85811015610e345784840389528151610e158582610db0565b9450610e2083610dc4565b925060208a01995050600181019050610dfc565b50829750879550505050505092915050565b60006020820190508181036000830152610e608184610dd1565b905092915050565b60008060408385031215610e7f57610e7e610c1b565b5b6000610e8d85828601610c6e565b9250506020610e9e85828601610c6e565b9150509250929050565b60008115159050919050565b610ebd81610ea8565b82525050565b6000602082019050610ed86000830184610eb4565b92915050565b600080fd5b600080fd5b7f4e487b7100000000000000000000000000000000000000000000000000000000600052604160045260246000fd5b610f2082610d22565b810181811067ffffffffffffffff82111715610f3f57610f3e610ee8565b5b80604052505050565b6000610f52610c11565b9050610f5e8282610f17565b919050565b600067ffffffffffffffff821115610f7e57610f7d610ee8565b5b610f8782610d22565b9050602081019050919050565b82818337600083830152505050565b6000610fb6610fb184610f63565b610f48565b905082815260208101848484011115610fd257610fd1610ee3565b5b610fdd848285610f94565b509392505050565b600082601f830112610ffa57610ff9610ede565b5b813561100a848260208601610fa3565b91505092915050565b60006020828403121561102957611028610c1b565b5b600082013567ffffffffffffffff81111561104757611046610c20565b5b61105384828501610fe5565b91505092915050565b6000806040838503121561107357611072610c1b565b5b600083013567ffffffffffffffff81111561109157611090610c20565b5b61109d85828601610fe5565b925050602083013567ffffffffffffffff8111156110be576110bd610c20565b5b6110ca85828601610fe5565b9150509250929050565b600082825260208201905092915050565b7f4163636573732064656e6965643a205065726d697373696f6e206e6f7420677260008201527f616e7465642062792070617469656e742e000000000000000000000000000000602082015250565b60006111416031836110d4565b915061114c826110e5565b604082019050919050565b6000602082019050818103600083015261117081611134565b9050919050565b7f4e487b7100000000000000000000000000000000000000000000000000000000600052602260045260246000fd5b600060028204905060018216806111be57607f821691505b6020821081036111d1576111d0611177565b5b50919050565b60008190508160005260206000209050919050565b60006020601f8301049050919050565b600082821b905092915050565b6000600883026112397fffffffffffffffffffffffffffffffffffffffffffffffffffffffffffffffff826111fc565b61124386836111fc565b95508019841693508086168417925050509392505050565b6000819050919050565b6000819050919050565b600061128a6112856112808461125b565b611265565b61125b565b9050919050565b6000819050919050565b6112a48361126f565b6112b86112b082611291565b848454611209565b825550505050565b600090565b6112cd6112c0565b6112d881848461129b565b505050565b5b818110156112fc576112f16000826112c5565b6001810190506112de565b5050565b601f82111561134157611312816111d7565b61131b846111ec565b8101602085101561132a578190505b61133e611336856111ec565b8301826112dd565b50505b505050565b600082821c905092915050565b600061136460001984600802611346565b1980831691505092915050565b600061137d8383611353565b9150826002028217905092915050565b61139682610cdc565b67ffffffffffffffff8111156113af576113ae610ee8565b5b6113b982546111a6565b6113c4828285611300565b600060209050601f8311600181146113f757600084156113e5578287015190505b6113ef8582611371565b865550611457565b601f198416611405866111d7565b60005b8281101561142d57848901518255600182019150602085019450602081019050611408565b8683101561144a5784890151611446601f891682611353565b8355505b6001600288020188555050505b505050505050565b7f4e487b7100000000000000000000000000000000000000000000000000000000600052601160045260246000fd5b60006114998261125b565b91507fffffffffffffffffffffffffffffffffffffffffffffffffffffffffffffffff82036114cb576114ca61145f565b5b600182019050919050565b7f4e487b7100000000000000000000000000000000000000000000000000000000600052601260045260246000fd5b60006115108261125b565b915061151b8361125b565b92508261152b5761152a6114d6565b5b828204905092915050565b60006115418261125b565b915061154c8361125b565b92508282039050818111156115645761156361145f565b5b92915050565b60006115758261125b565b91506115808361125b565b925082820261158e8161125b565b915082820484148315176115a5576115a461145f565b5b5092915050565b600060ff82169050919050565b60006115c4826115ac565b91506115cf836115ac565b9250828201905060ff8111156115e8576115e761145f565b5b92915050565b7f4e487b7100000000000000000000000000000000000000000000000000000000600052603260045260246000fdfea26469706673582212200d90d22bd875b9559a0635a5d97b164ca09a507a2d381dad7afc6537033c75fb64736f6c63430008130033",
  "immutableReferences": {},
  "source": "// SPDX-License-Identifier: MIT\r\npragma solidity ^0.8.19;\r\n\r\ncontract UploadEhr {\r\n    struct PatientRecord {\r\n        string timeStamp;\r\n        string medicalRecordHash;\r\n    }\r\n\r\n    // Mapping from patient address to their records\r\n    mapping(address => PatientRecord[]) private records;\r\n    \r\n    // Mapping from patient address to doctor address to permission\r\n    mapping(address => mapping(address => bool)) public patientToDoctorPermission;\r\n\r\n    // Upload a record (patient only)\r\n    function uploadRecord(string memory ipfsHash) public {\r\n        string memory timestamp = _getCurrentTimestamp();\r\n        PatientRecord memory newRecord = PatientRecord(\r\n            timestamp,\r\n            ipfsHash\r\n        );\r\n        records[msg.sender].push(newRecord);\r\n    }\r\n\r\n    // Legacy function for backward compatibility\r\n    function addRecord(string memory _timeStamp, string memory _medicalRecordHash) public {\r\n        PatientRecord memory newRecord = PatientRecord(\r\n            _timeStamp,\r\n            _medicalRecordHash\r\n        );\r\n        records[msg.sender].push(newRecord);\r\n    }\r\n\r\n    // Get patient's own records\r\n    function getMyRecords() public view returns (PatientRecord[] memory) {\r\n        return records[msg.sender];\r\n    }\r\n\r\n    // Legacy function for backward compatibility\r\n    function getRecords() public view returns (PatientRecord[] memory) {\r\n        return records[msg.sender];\r\n    }\r\n\r\n    // Grant access to a doctor\r\n    function grantAccessToDoctor(address doctor) public {\r\n        patientToDoctorPermission[msg.sender][doctor] = true;\r\n    }\r\n\r\n    // Revoke access from a doctor\r\n    function revokeAccessFromDoctor(address doctor) public {\r\n        patientToDoctorPermission[msg.sender][doctor] = false;\r\n    }\r\n\r\n    // Doctor can get patient records if permission is granted\r\n    function getPatientRecords(address patient) public view returns (PatientRecord[] memory) {\r\n        require(\r\n            patientToDoctorPermission[patient][msg.sender],\r\n            \"Access denied: Permission not granted by patient.\"\r\n        );\r\n        return records[patient];\r\n    }\r\n\r\n    // Helper function to get current timestamp\r\n    function _getCurrentTimestamp() private view returns (string memory) {\r\n        // Solidity doesn't have native timestamp to string conversion\r\n        // We'll use block.timestamp and convert it\r\n        uint256 timestamp = block.timestamp;\r\n        return _uintToString(timestamp);\r\n    }\r\n\r\n    // Helper function to convert uint to string\r\n    function _uintToString(uint256 v) private pure returns (string memory) {\r\n        if (v == 0) {\r\n            return \"0\";\r\n        }\r\n        uint256 j = v;\r\n        uint256 len;\r\n        while (j != 0) {\r\n            len++;\r\n            j /= 10;\r\n        }\r\n        bytes memory bstr = new bytes(len);\r\n        uint256 k = len;\r\n        while (v != 0) {\r\n            k = k - 1;\r\n            uint8 temp = (48 + uint8(v - v / 10 * 10));\r\n            bytes1 b1 = bytes1(temp);\r\n            bstr[k] = b1;\r\n            v /= 10;\r\n        }\r\n        return string(bstr);\r\n    }\r\n}\r\n\r\n",
  "sourcePath": "C:\\Users\\Lenovo\\OneDrive\\Desktop\\improvement\\Electronic-Health-Record\\src\\contracts\\UploadEhr.sol",
  "compiler": {
    "name": "solc",
    "version": "0.8.19+commit.7dd6d404.Emscripten.clang"
  },
  "schemaVersion": "3.4.16",
  "updatedAt": "2025-11-07T10:07:08.607Z",
  "networkType": "ethereum",
  "devdoc": {
    "kind": "dev",
    "methods": {},
    "version": 1
  },
  "userdoc": {
    "kind": "user",
    "methods": {},
    "version": 1
  }
}