{
  "contractName": "UploadEhr",
  "abi": [
    {
      "anonymous": false,
      "inputs": [
        {
          "indexed": true,
          "internalType": "address",
          "name": "patient",
          "type": "address"
        },
        {
          "indexed": true,
          "internalType": "uint256",
          "name": "reportIndex",
          "type": "uint256"
        }
      ],
      "name": "DiagnosticReportApproved",
      "type": "event"
    },
    {
      "anonymous": false,
      "inputs": [
        {
          "indexed": true,
          "internalType": "address",
          "name": "patient",
          "type": "address"
        },
        {
          "indexed": true,
          "internalType": "uint256",
          "name": "reportIndex",
          "type": "uint256"
        },
        {
          "indexed": false,
          "internalType": "string",
          "name": "testType",
          "type": "string"
        },
        {
          "indexed": false,
          "internalType": "string",
          "name": "ipfsHash",
          "type": "string"
        }
      ],
      "name": "DiagnosticReportUploaded",
      "type": "event"
    },
    {
      "anonymous": false,
      "inputs": [
        {
          "indexed": true,
          "internalType": "uint256",
          "name": "requestId",
          "type": "uint256"
        },
        {
          "indexed": true,
          "internalType": "address",
          "name": "diagnostic",
          "type": "address"
        }
      ],
      "name": "TestAssigned",
      "type": "event"
    },
    {
      "anonymous": false,
      "inputs": [
        {
          "indexed": true,
          "internalType": "uint256",
          "name": "requestId",
          "type": "uint256"
        },
        {
          "indexed": true,
          "internalType": "address",
          "name": "patient",
          "type": "address"
        },
        {
          "indexed": true,
          "internalType": "address",
          "name": "doctor",
          "type": "address"
        },
        {
          "indexed": false,
          "internalType": "string",
          "name": "testType",
          "type": "string"
        }
      ],
      "name": "TestRequested",
      "type": "event"
    },
    {
      "anonymous": false,
      "inputs": [
        {
          "indexed": true,
          "internalType": "uint256",
          "name": "requestId",
          "type": "uint256"
        },
        {
          "indexed": false,
          "internalType": "string",
          "name": "status",
          "type": "string"
        }
      ],
      "name": "TestStatusUpdated",
      "type": "event"
    },
    {
      "inputs": [
        {
          "internalType": "address",
          "name": "",
          "type": "address"
        },
        {
          "internalType": "uint256",
          "name": "",
          "type": "uint256"
        }
      ],
      "name": "diagnosticReports",
      "outputs": [
        {
          "internalType": "uint256",
          "name": "timestamp",
          "type": "uint256"
        },
        {
          "internalType": "string",
          "name": "testType",
          "type": "string"
        },
        {
          "internalType": "string",
          "name": "diagnosticCenter",
          "type": "string"
        },
        {
          "internalType": "string",
          "name": "medicalReportHash",
          "type": "string"
        },
        {
          "internalType": "string",
          "name": "description",
          "type": "string"
        },
        {
          "internalType": "bool",
          "name": "isApproved",
          "type": "bool"
        },
        {
          "internalType": "address",
          "name": "diagnosticAddress",
          "type": "address"
        },
        {
          "internalType": "address",
          "name": "doctorAddress",
          "type": "address"
        }
      ],
      "stateMutability": "view",
      "type": "function",
      "constant": true
    },
    {
      "inputs": [
        {
          "internalType": "address",
          "name": "",
          "type": "address"
        },
        {
          "internalType": "uint256",
          "name": "",
          "type": "uint256"
        }
      ],
      "name": "diagnosticRequests",
      "outputs": [
        {
          "internalType": "uint256",
          "name": "",
          "type": "uint256"
        }
      ],
      "stateMutability": "view",
      "type": "function",
      "constant": true
    },
    {
      "inputs": [
        {
          "internalType": "address",
          "name": "",
          "type": "address"
        },
        {
          "internalType": "address",
          "name": "",
          "type": "address"
        }
      ],
      "name": "diagnosticToPatientPermission",
      "outputs": [
        {
          "internalType": "bool",
          "name": "",
          "type": "bool"
        }
      ],
      "stateMutability": "view",
      "type": "function",
      "constant": true
    },
    {
      "inputs": [
        {
          "internalType": "address",
          "name": "",
          "type": "address"
        },
        {
          "internalType": "uint256",
          "name": "",
          "type": "uint256"
        }
      ],
      "name": "doctorTestRequests",
      "outputs": [
        {
          "internalType": "uint256",
          "name": "",
          "type": "uint256"
        }
      ],
      "stateMutability": "view",
      "type": "function",
      "constant": true
    },
    {
      "inputs": [
        {
          "internalType": "address",
          "name": "",
          "type": "address"
        },
        {
          "internalType": "uint256",
          "name": "",
          "type": "uint256"
        }
      ],
      "name": "patientTestRequests",
      "outputs": [
        {
          "internalType": "uint256",
          "name": "",
          "type": "uint256"
        }
      ],
      "stateMutability": "view",
      "type": "function",
      "constant": true
    },
    {
      "inputs": [
        {
          "internalType": "address",
          "name": "",
          "type": "address"
        },
        {
          "internalType": "address",
          "name": "",
          "type": "address"
        }
      ],
      "name": "patientToDoctorPermission",
      "outputs": [
        {
          "internalType": "bool",
          "name": "",
          "type": "bool"
        }
      ],
      "stateMutability": "view",
      "type": "function",
      "constant": true
    },
    {
      "inputs": [
        {
          "internalType": "uint256",
          "name": "",
          "type": "uint256"
        }
      ],
      "name": "testRequests",
      "outputs": [
        {
          "internalType": "uint256",
          "name": "requestId",
          "type": "uint256"
        },
        {
          "internalType": "address",
          "name": "patient",
          "type": "address"
        },
        {
          "internalType": "address",
          "name": "doctor",
          "type": "address"
        },
        {
          "internalType": "address",
          "name": "diagnostic",
          "type": "address"
        },
        {
          "internalType": "string",
          "name": "testType",
          "type": "string"
        },
        {
          "internalType": "string",
          "name": "description",
          "type": "string"
        },
        {
          "internalType": "string",
          "name": "status",
          "type": "string"
        },
        {
          "internalType": "uint256",
          "name": "timestamp",
          "type": "uint256"
        },
        {
          "internalType": "bool",
          "name": "exists",
          "type": "bool"
        }
      ],
      "stateMutability": "view",
      "type": "function",
      "constant": true
    },
    {
      "inputs": [
        {
          "internalType": "string",
          "name": "ipfsHash",
          "type": "string"
        }
      ],
      "name": "uploadRecord",
      "outputs": [],
      "stateMutability": "nonpayable",
      "type": "function"
    },
    {
      "inputs": [
        {
          "internalType": "string",
          "name": "_timeStamp",
          "type": "string"
        },
        {
          "internalType": "string",
          "name": "_medicalRecordHash",
          "type": "string"
        }
      ],
      "name": "addRecord",
      "outputs": [],
      "stateMutability": "nonpayable",
      "type": "function"
    },
    {
      "inputs": [],
      "name": "getMyRecords",
      "outputs": [
        {
          "components": [
            {
              "internalType": "string",
              "name": "timeStamp",
              "type": "string"
            },
            {
              "internalType": "string",
              "name": "medicalRecordHash",
              "type": "string"
            }
          ],
          "internalType": "struct UploadEhr.PatientRecord[]",
          "name": "",
          "type": "tuple[]"
        }
      ],
      "stateMutability": "view",
      "type": "function",
      "constant": true
    },
    {
      "inputs": [],
      "name": "getRecords",
      "outputs": [
        {
          "components": [
            {
              "internalType": "string",
              "name": "timeStamp",
              "type": "string"
            },
            {
              "internalType": "string",
              "name": "medicalRecordHash",
              "type": "string"
            }
          ],
          "internalType": "struct UploadEhr.PatientRecord[]",
          "name": "",
          "type": "tuple[]"
        }
      ],
      "stateMutability": "view",
      "type": "function",
      "constant": true
    },
    {
      "inputs": [
        {
          "internalType": "address",
          "name": "doctor",
          "type": "address"
        }
      ],
      "name": "grantAccessToDoctor",
      "outputs": [],
      "stateMutability": "nonpayable",
      "type": "function"
    },
    {
      "inputs": [
        {
          "internalType": "address",
          "name": "doctor",
          "type": "address"
        }
      ],
      "name": "revokeAccessFromDoctor",
      "outputs": [],
      "stateMutability": "nonpayable",
      "type": "function"
    },
    {
      "inputs": [
        {
          "internalType": "address",
          "name": "patient",
          "type": "address"
        }
      ],
      "name": "getPatientRecords",
      "outputs": [
        {
          "components": [
            {
              "internalType": "string",
              "name": "timeStamp",
              "type": "string"
            },
            {
              "internalType": "string",
              "name": "medicalRecordHash",
              "type": "string"
            }
          ],
          "internalType": "struct UploadEhr.PatientRecord[]",
          "name": "",
          "type": "tuple[]"
        }
      ],
      "stateMutability": "view",
      "type": "function",
      "constant": true
    },
    {
      "inputs": [
        {
          "internalType": "address",
          "name": "patient",
          "type": "address"
        },
        {
          "internalType": "string",
          "name": "testType",
          "type": "string"
        },
        {
          "internalType": "string",
          "name": "description",
          "type": "string"
        }
      ],
      "name": "requestTest",
      "outputs": [
        {
          "internalType": "uint256",
          "name": "",
          "type": "uint256"
        }
      ],
      "stateMutability": "nonpayable",
      "type": "function"
    },
    {
      "inputs": [
        {
          "internalType": "uint256",
          "name": "requestId",
          "type": "uint256"
        }
      ],
      "name": "assignTest",
      "outputs": [],
      "stateMutability": "nonpayable",
      "type": "function"
    },
    {
      "inputs": [
        {
          "internalType": "address",
          "name": "patient",
          "type": "address"
        },
        {
          "internalType": "string",
          "name": "testType",
          "type": "string"
        },
        {
          "internalType": "string",
          "name": "ipfsHash",
          "type": "string"
        },
        {
          "internalType": "string",
          "name": "diagnosticCenter",
          "type": "string"
        },
        {
          "internalType": "string",
          "name": "description",
          "type": "string"
        }
      ],
      "name": "uploadDiagnosticReport",
      "outputs": [
        {
          "internalType": "uint256",
          "name": "",
          "type": "uint256"
        }
      ],
      "stateMutability": "nonpayable",
      "type": "function"
    },
    {
      "inputs": [
        {
          "internalType": "uint256",
          "name": "requestId",
          "type": "uint256"
        },
        {
          "internalType": "uint256",
          "name": "reportIndex",
          "type": "uint256"
        }
      ],
      "name": "linkReportToRequest",
      "outputs": [],
      "stateMutability": "nonpayable",
      "type": "function"
    },
    {
      "inputs": [
        {
          "internalType": "address",
          "name": "patient",
          "type": "address"
        },
        {
          "internalType": "uint256",
          "name": "reportIndex",
          "type": "uint256"
        }
      ],
      "name": "approveDiagnosticReport",
      "outputs": [],
      "stateMutability": "nonpayable",
      "type": "function"
    },
    {
      "inputs": [
        {
          "internalType": "address",
          "name": "patient",
          "type": "address"
        }
      ],
      "name": "getDiagnosticReports",
      "outputs": [
        {
          "components": [
            {
              "internalType": "uint256",
              "name": "timestamp",
              "type": "uint256"
            },
            {
              "internalType": "string",
              "name": "testType",
              "type": "string"
            },
            {
              "internalType": "string",
              "name": "diagnosticCenter",
              "type": "string"
            },
            {
              "internalType": "string",
              "name": "medicalReportHash",
              "type": "string"
            },
            {
              "internalType": "string",
              "name": "description",
              "type": "string"
            },
            {
              "internalType": "bool",
              "name": "isApproved",
              "type": "bool"
            },
            {
              "internalType": "address",
              "name": "diagnosticAddress",
              "type": "address"
            },
            {
              "internalType": "address",
              "name": "doctorAddress",
              "type": "address"
            }
          ],
          "internalType": "struct UploadEhr.DiagnosticReport[]",
          "name": "",
          "type": "tuple[]"
        }
      ],
      "stateMutability": "view",
      "type": "function",
      "constant": true
    },
    {
      "inputs": [
        {
          "internalType": "address",
          "name": "patient",
          "type": "address"
        }
      ],
      "name": "getDiagnosticReportsForDoctor",
      "outputs": [
        {
          "components": [
            {
              "internalType": "uint256",
              "name": "timestamp",
              "type": "uint256"
            },
            {
              "internalType": "string",
              "name": "testType",
              "type": "string"
            },
            {
              "internalType": "string",
              "name": "diagnosticCenter",
              "type": "string"
            },
            {
              "internalType": "string",
              "name": "medicalReportHash",
              "type": "string"
            },
            {
              "internalType": "string",
              "name": "description",
              "type": "string"
            },
            {
              "internalType": "bool",
              "name": "isApproved",
              "type": "bool"
            },
            {
              "internalType": "address",
              "name": "diagnosticAddress",
              "type": "address"
            },
            {
              "internalType": "address",
              "name": "doctorAddress",
              "type": "address"
            }
          ],
          "internalType": "struct UploadEhr.DiagnosticReport[]",
          "name": "",
          "type": "tuple[]"
        }
      ],
      "stateMutability": "view",
      "type": "function",
      "constant": true
    },
    {
      "inputs": [
        {
          "internalType": "address",
          "name": "diagnostic",
          "type": "address"
        }
      ],
      "name": "getDiagnosticRequests",
      "outputs": [
        {
          "internalType": "uint256[]",
          "name": "",
          "type": "uint256[]"
        }
      ],
      "stateMutability": "view",
      "type": "function",
      "constant": true
    },
    {
      "inputs": [
        {
          "internalType": "address",
          "name": "doctor",
          "type": "address"
        }
      ],
      "name": "getDoctorTestRequests",
      "outputs": [
        {
          "internalType": "uint256[]",
          "name": "",
          "type": "uint256[]"
        }
      ],
      "stateMutability": "view",
      "type": "function",
      "constant": true
    },
    {
      "inputs": [
        {
          "internalType": "address",
          "name": "patient",
          "type": "address"
        }
      ],
      "name": "getPatientTestRequests",
      "outputs": [
        {
          "internalType": "uint256[]",
          "name": "",
          "type": "uint256[]"
        }
      ],
      "stateMutability": "view",
      "type": "function",
      "constant": true
    },
    {
      "inputs": [
        {
          "internalType": "uint256",
          "name": "requestId",
          "type": "uint256"
        }
      ],
      "name": "getTestRequest",
      "outputs": [
        {
          "components": [
            {
              "internalType": "uint256",
              "name": "requestId",
              "type": "uint256"
            },
            {
              "internalType": "address",
              "name": "patient",
              "type": "address"
            },
            {
              "internalType": "address",
              "name": "doctor",
              "type": "address"
            },
            {
              "internalType": "address",
              "name": "diagnostic",
              "type": "address"
            },
            {
              "internalType": "string",
              "name": "testType",
              "type": "string"
            },
            {
              "internalType": "string",
              "name": "description",
              "type": "string"
            },
            {
              "internalType": "string",
              "name": "status",
              "type": "string"
            },
            {
              "internalType": "uint256",
              "name": "timestamp",
              "type": "uint256"
            },
            {
              "internalType": "bool",
              "name": "exists",
              "type": "bool"
            }
          ],
          "internalType": "struct UploadEhr.TestRequest",
          "name": "",
          "type": "tuple"
        }
      ],
      "stateMutability": "view",
      "type": "function",
      "constant": true
    },
    {
      "inputs": [
        {
          "internalType": "uint256",
          "name": "requestId",
          "type": "uint256"
        },
        {
          "internalType": "string",
          "name": "newStatus",
          "type": "string"
        }
      ],
      "name": "updateTestStatus",
      "outputs": [],
      "stateMutability": "nonpayable",
      "type": "function"
    },
    {
      "inputs": [],
      "name": "getPendingRequests",
      "outputs": [
        {
          "internalType": "uint256[]",
          "name": "",
          "type": "uint256[]"
        }
      ],
      "stateMutability": "view",
      "type": "function",
      "constant": true
    }
  ],
  "bytecode": "0x6080604052600060085534801561001557600080fd5b5061578580620000266000396000f3fe608060405234801561001057600080fd5b50600436106101a95760003560e01c806380a1f712116100f9578063a5d7842611610097578063d354998011610071578063d354998014610571578063e76637ce1461058d578063ebe4b0f6146105ab578063f83e9cf2146105db576101a9565b8063a5d78426146104f5578063ada3e0bb14610525578063c959624814610555576101a9565b80638eff3c29116100d35780638eff3c291461043f57806390e309181461045d57806395544a591461049557806397a3509f146104c5576101a9565b806380a1f712146103d557806380cedc5f146103f35780638ab6b8b614610423576101a9565b806350e9229011610166578063636e0e9f11610140578063636e0e9f1461032957806369da68dc1461035957806371fd5ef9146103895780637fb869bb146103b9576101a9565b806350e92290146102a65780635905bb89146102dd578063629e559d1461030d576101a9565b806318bd4847146101ae57806319718467146101de5780631c8e251c146101fa5780633bcb92061461021657806342076395146102465780634766703014610276575b600080fd5b6101c860048036038101906101c39190613be2565b6105f7565b6040516101d59190613da5565b60405180910390f35b6101f860048036038101906101f39190613dfd565b610881565b005b610214600480360381019061020f9190613be2565b610b16565b005b610230600480360381019061022b9190613e2a565b610bad565b60405161023d9190613e79565b60405180910390f35b610260600480360381019061025b9190613ef9565b610bde565b60405161026d9190613e79565b60405180910390f35b610290600480360381019061028b9190613dfd565b61109f565b60405161029d919061409a565b60405180910390f35b6102c060048036038101906102bb9190613e2a565b611417565b6040516102d4989796959493929190614124565b60405180910390f35b6102f760048036038101906102f29190613e2a565b6116e9565b6040516103049190613e79565b60405180910390f35b61032760048036038101906103229190613be2565b61171a565b005b610343600480360381019061033e9190613e2a565b6117b2565b6040516103509190613e79565b60405180910390f35b610373600480360381019061036e91906141be565b6117e3565b60405161038091906141fe565b60405180910390f35b6103a3600480360381019061039e9190613be2565b611812565b6040516103b091906142c8565b60405180910390f35b6103d360048036038101906103ce919061441a565b6118a9565b005b6103dd611969565b6040516103ea91906142c8565b60405180910390f35b61040d600480360381019061040891906141be565b611bbe565b60405161041a91906141fe565b60405180910390f35b61043d60048036038101906104389190613e2a565b611bed565b005b610447611ed4565b6040516104549190613da5565b60405180910390f35b61047760048036038101906104729190613dfd565b612093565b60405161048c99989796959493929190614463565b60405180910390f35b6104af60048036038101906104aa9190613be2565b6122e6565b6040516104bc919061468c565b60405180910390f35b6104df60048036038101906104da9190613be2565b612767565b6040516104ec91906142c8565b60405180910390f35b61050f600480360381019061050a91906146ae565b6127fe565b60405161051c9190613e79565b60405180910390f35b61053f600480360381019061053a9190613be2565b612cf3565b60405161054c91906142c8565b60405180910390f35b61056f600480360381019061056a91906147aa565b612d8a565b005b61058b60048036038101906105869190614822565b612e3e565b005b610595612faa565b6040516105a29190613da5565b60405180910390f35b6105c560048036038101906105c09190613be2565b613169565b6040516105d2919061468c565b60405180910390f35b6105f560048036038101906105f09190614882565b613521565b005b6060600160008373ffffffffffffffffffffffffffffffffffffffff1673ffffffffffffffffffffffffffffffffffffffff16815260200190815260200160002060003373ffffffffffffffffffffffffffffffffffffffff1673ffffffffffffffffffffffffffffffffffffffff16815260200190815260200160002060009054906101000a900460ff166106c2576040517f08c379a00000000000000000000000000000000000000000000000000000000081526004016106b990614934565b60405180910390fd5b6000808373ffffffffffffffffffffffffffffffffffffffff1673ffffffffffffffffffffffffffffffffffffffff168152602001908152602001600020805480602002602001604051908101604052809291908181526020016000905b82821015610876578382906000526020600020906002020160405180604001604052908160008201805461075390614983565b80601f016020809104026020016040519081016040528092919081815260200182805461077f90614983565b80156107cc5780601f106107a1576101008083540402835291602001916107cc565b820191906000526020600020905b8154815290600101906020018083116107af57829003601f168201915b505050505081526020016001820180546107e590614983565b80601f016020809104026020016040519081016040528092919081815260200182805461081190614983565b801561085e5780601f106108335761010080835404028352916020019161085e565b820191906000526020600020905b81548152906001019060200180831161084157829003601f168201915b50505050508152505081526020019060010190610720565b505050509050919050565b6004600082815260200190815260200160002060080160009054906101000a900460ff166108e4576040517f08c379a00000000000000000000000000000000000000000000000000000000081526004016108db90614a00565b60405180910390fd5b6040516020016108f390614a77565b604051602081830303815290604052805190602001206004600083815260200190815260200160002060060160405160200161092f9190614b24565b6040516020818303038152906040528051906020012014610985576040517f08c379a000000000000000000000000000000000000000000000000000000000815260040161097c90614bad565b60405180910390fd5b336004600083815260200190815260200160002060030160006101000a81548173ffffffffffffffffffffffffffffffffffffffff021916908373ffffffffffffffffffffffffffffffffffffffff1602179055506040518060400160405280600b81526020017f494e5f50524f4752455353000000000000000000000000000000000000000000815250600460008381526020019081526020016000206006019081610a329190614d64565b50600560003373ffffffffffffffffffffffffffffffffffffffff1673ffffffffffffffffffffffffffffffffffffffff1681526020019081526020016000208190806001815401808255809150506001900390600052602060002001600090919091909150553373ffffffffffffffffffffffffffffffffffffffff16817f0730b710855e03c6bf3bf28358463d36087aa6e69220672a00eabee4b589b31b60405160405180910390a3807ff4635f6986da230fc46d88309f17fcc758fd9910a66b0529ceeea1a1812b3f37604051610b0b90614e82565b60405180910390a250565b60018060003373ffffffffffffffffffffffffffffffffffffffff1673ffffffffffffffffffffffffffffffffffffffff16815260200190815260200160002060008373ffffffffffffffffffffffffffffffffffffffff1673ffffffffffffffffffffffffffffffffffffffff16815260200190815260200160002060006101000a81548160ff02191690831515021790555050565b60066020528160005260406000208181548110610bc957600080fd5b90600052602060002001600091509150505481565b60008073ffffffffffffffffffffffffffffffffffffffff168673ffffffffffffffffffffffffffffffffffffffff1603610c4e576040517f08c379a0000000000000000000000000000000000000000000000000000000008152600401610c4590614eee565b60405180910390fd5b60008585905011610c94576040517f08c379a0000000000000000000000000000000000000000000000000000000008152600401610c8b90614f5a565b60405180910390fd5b60086000815480929190610ca790614fa9565b91905055506000600854905060006040518061012001604052808381526020018973ffffffffffffffffffffffffffffffffffffffff1681526020013373ffffffffffffffffffffffffffffffffffffffff168152602001600073ffffffffffffffffffffffffffffffffffffffff16815260200188888080601f016020809104026020016040519081016040528093929190818152602001838380828437600081840152601f19601f82011690508083019250505050505050815260200186868080601f016020809104026020016040519081016040528093929190818152602001838380828437600081840152601f19601f8201169050808301925050505050505081526020016040518060400160405280600981526020017f5245515545535445440000000000000000000000000000000000000000000000815250815260200142815260200160011515815250905080600460008481526020019081526020016000206000820151816000015560208201518160010160006101000a81548173ffffffffffffffffffffffffffffffffffffffff021916908373ffffffffffffffffffffffffffffffffffffffff16021790555060408201518160020160006101000a81548173ffffffffffffffffffffffffffffffffffffffff021916908373ffffffffffffffffffffffffffffffffffffffff16021790555060608201518160030160006101000a81548173ffffffffffffffffffffffffffffffffffffffff021916908373ffffffffffffffffffffffffffffffffffffffff1602179055506080820151816004019081610f029190614d64565b5060a0820151816005019081610f189190614d64565b5060c0820151816006019081610f2e9190614d64565b5060e082015181600701556101008201518160080160006101000a81548160ff021916908315150217905550905050600660003373ffffffffffffffffffffffffffffffffffffffff1673ffffffffffffffffffffffffffffffffffffffff168152602001908152602001600020829080600181540180825580915050600190039060005260206000200160009091909190915055600760008973ffffffffffffffffffffffffffffffffffffffff1673ffffffffffffffffffffffffffffffffffffffff1681526020019081526020016000208290806001815401808255809150506001900390600052602060002001600090919091909150553373ffffffffffffffffffffffffffffffffffffffff168873ffffffffffffffffffffffffffffffffffffffff16837fb708b2a6780c7ba78819e200659a159efd1ff159f2314a1c7d09f683f6a34a468a8a60405161108992919061501e565b60405180910390a4819250505095945050505050565b6110a7613ae0565b6004600083815260200190815260200160002060080160009054906101000a900460ff1661110a576040517f08c379a000000000000000000000000000000000000000000000000000000000815260040161110190614a00565b60405180910390fd5b6004600083815260200190815260200160002060405180610120016040529081600082015481526020016001820160009054906101000a900473ffffffffffffffffffffffffffffffffffffffff1673ffffffffffffffffffffffffffffffffffffffff1673ffffffffffffffffffffffffffffffffffffffff1681526020016002820160009054906101000a900473ffffffffffffffffffffffffffffffffffffffff1673ffffffffffffffffffffffffffffffffffffffff1673ffffffffffffffffffffffffffffffffffffffff1681526020016003820160009054906101000a900473ffffffffffffffffffffffffffffffffffffffff1673ffffffffffffffffffffffffffffffffffffffff1673ffffffffffffffffffffffffffffffffffffffff16815260200160048201805461124590614983565b80601f016020809104026020016040519081016040528092919081815260200182805461127190614983565b80156112be5780601f10611293576101008083540402835291602001916112be565b820191906000526020600020905b8154815290600101906020018083116112a157829003601f168201915b505050505081526020016005820180546112d790614983565b80601f016020809104026020016040519081016040528092919081815260200182805461130390614983565b80156113505780601f1061132557610100808354040283529160200191611350565b820191906000526020600020905b81548152906001019060200180831161133357829003601f168201915b5050505050815260200160068201805461136990614983565b80601f016020809104026020016040519081016040528092919081815260200182805461139590614983565b80156113e25780601f106113b7576101008083540402835291602001916113e2565b820191906000526020600020905b8154815290600101906020018083116113c557829003601f168201915b50505050508152602001600782015481526020016008820160009054906101000a900460ff1615151515815250509050919050565b6002602052816000526040600020818154811061143357600080fd5b90600052602060002090600702016000915091505080600001549080600101805461145d90614983565b80601f016020809104026020016040519081016040528092919081815260200182805461148990614983565b80156114d65780601f106114ab576101008083540402835291602001916114d6565b820191906000526020600020905b8154815290600101906020018083116114b957829003601f168201915b5050505050908060020180546114eb90614983565b80601f016020809104026020016040519081016040528092919081815260200182805461151790614983565b80156115645780601f1061153957610100808354040283529160200191611564565b820191906000526020600020905b81548152906001019060200180831161154757829003601f168201915b50505050509080600301805461157990614983565b80601f01602080910402602001604051908101604052809291908181526020018280546115a590614983565b80156115f25780601f106115c7576101008083540402835291602001916115f2565b820191906000526020600020905b8154815290600101906020018083116115d557829003601f168201915b50505050509080600401805461160790614983565b80601f016020809104026020016040519081016040528092919081815260200182805461163390614983565b80156116805780601f1061165557610100808354040283529160200191611680565b820191906000526020600020905b81548152906001019060200180831161166357829003601f168201915b5050505050908060050160009054906101000a900460ff16908060050160019054906101000a900473ffffffffffffffffffffffffffffffffffffffff16908060060160009054906101000a900473ffffffffffffffffffffffffffffffffffffffff16905088565b6005602052816000526040600020818154811061170557600080fd5b90600052602060002001600091509150505481565b6000600160003373ffffffffffffffffffffffffffffffffffffffff1673ffffffffffffffffffffffffffffffffffffffff16815260200190815260200160002060008373ffffffffffffffffffffffffffffffffffffffff1673ffffffffffffffffffffffffffffffffffffffff16815260200190815260200160002060006101000a81548160ff02191690831515021790555050565b600760205281600052604060002081815481106117ce57600080fd5b90600052602060002001600091509150505481565b60016020528160005260406000206020528060005260406000206000915091509054906101000a900460ff1681565b6060600560008373ffffffffffffffffffffffffffffffffffffffff1673ffffffffffffffffffffffffffffffffffffffff16815260200190815260200160002080548060200260200160405190810160405280929190818152602001828054801561189d57602002820191906000526020600020905b815481526020019060010190808311611889575b50505050509050919050565b60006118b3613942565b9050600060405180604001604052808381526020018481525090506000803373ffffffffffffffffffffffffffffffffffffffff1673ffffffffffffffffffffffffffffffffffffffff168152602001908152602001600020819080600181540180825580915050600190039060005260206000209060020201600090919091909150600082015181600001908161194b9190614d64565b5060208201518160010190816119619190614d64565b505050505050565b6060600060085467ffffffffffffffff811115611989576119886142ef565b5b6040519080825280602002602001820160405280156119b75781602001602082028036833780820191505090505b509050600080600190505b6008548111611b0e576004600082815260200190815260200160002060080160009054906101000a900460ff168015611a595750604051602001611a0590614a77565b6040516020818303038152906040528051906020012060046000838152602001908152602001600020600601604051602001611a419190614b24565b60405160208183030381529060405280519060200120145b8015611ac75750600073ffffffffffffffffffffffffffffffffffffffff166004600083815260200190815260200160002060030160009054906101000a900473ffffffffffffffffffffffffffffffffffffffff1673ffffffffffffffffffffffffffffffffffffffff16145b15611afb5780838381518110611ae057611adf615042565b5b6020026020010181815250508180611af790614fa9565b9250505b8080611b0690614fa9565b9150506119c2565b5060008167ffffffffffffffff811115611b2b57611b2a6142ef565b5b604051908082528060200260200182016040528015611b595781602001602082028036833780820191505090505b50905060005b82811015611bb457838181518110611b7a57611b79615042565b5b6020026020010151828281518110611b9557611b94615042565b5b6020026020010181815250508080611bac90614fa9565b915050611b5f565b5080935050505090565b60036020528160005260406000206020528060005260406000206000915091509054906101000a900460ff1681565b600260008373ffffffffffffffffffffffffffffffffffffffff1673ffffffffffffffffffffffffffffffffffffffff168152602001908152602001600020805490508110611c71576040517f08c379a0000000000000000000000000000000000000000000000000000000008152600401611c68906150bd565b60405180910390fd5b3373ffffffffffffffffffffffffffffffffffffffff16600260008473ffffffffffffffffffffffffffffffffffffffff1673ffffffffffffffffffffffffffffffffffffffff1681526020019081526020016000208281548110611cd957611cd8615042565b5b906000526020600020906007020160050160019054906101000a900473ffffffffffffffffffffffffffffffffffffffff1673ffffffffffffffffffffffffffffffffffffffff1614611d61576040517f08c379a0000000000000000000000000000000000000000000000000000000008152600401611d5890615175565b60405180910390fd5b600260008373ffffffffffffffffffffffffffffffffffffffff1673ffffffffffffffffffffffffffffffffffffffff1681526020019081526020016000208181548110611db257611db1615042565b5b906000526020600020906007020160050160009054906101000a900460ff1615611e11576040517f08c379a0000000000000000000000000000000000000000000000000000000008152600401611e08906151e1565b60405180910390fd5b6001600260008473ffffffffffffffffffffffffffffffffffffffff1673ffffffffffffffffffffffffffffffffffffffff1681526020019081526020016000208281548110611e6457611e63615042565b5b906000526020600020906007020160050160006101000a81548160ff021916908315150217905550808273ffffffffffffffffffffffffffffffffffffffff167f3f9e20f07bb6bebf72f02f766c869de278d2bc18eacd50780b3921ea737678b260405160405180910390a35050565b60606000803373ffffffffffffffffffffffffffffffffffffffff1673ffffffffffffffffffffffffffffffffffffffff168152602001908152602001600020805480602002602001604051908101604052809291908181526020016000905b8282101561208a5783829060005260206000209060020201604051806040016040529081600082018054611f6790614983565b80601f0160208091040260200160405190810160405280929190818152602001828054611f9390614983565b8015611fe05780601f10611fb557610100808354040283529160200191611fe0565b820191906000526020600020905b815481529060010190602001808311611fc357829003601f168201915b50505050508152602001600182018054611ff990614983565b80601f016020809104026020016040519081016040528092919081815260200182805461202590614983565b80156120725780601f1061204757610100808354040283529160200191612072565b820191906000526020600020905b81548152906001019060200180831161205557829003601f168201915b50505050508152505081526020019060010190611f34565b50505050905090565b60046020528060005260406000206000915090508060000154908060010160009054906101000a900473ffffffffffffffffffffffffffffffffffffffff16908060020160009054906101000a900473ffffffffffffffffffffffffffffffffffffffff16908060030160009054906101000a900473ffffffffffffffffffffffffffffffffffffffff169080600401805461212e90614983565b80601f016020809104026020016040519081016040528092919081815260200182805461215a90614983565b80156121a75780601f1061217c576101008083540402835291602001916121a7565b820191906000526020600020905b81548152906001019060200180831161218a57829003601f168201915b5050505050908060050180546121bc90614983565b80601f01602080910402602001604051908101604052809291908181526020018280546121e890614983565b80156122355780601f1061220a57610100808354040283529160200191612235565b820191906000526020600020905b81548152906001019060200180831161221857829003601f168201915b50505050509080600601805461224a90614983565b80601f016020809104026020016040519081016040528092919081815260200182805461227690614983565b80156122c35780601f10612298576101008083540402835291602001916122c3565b820191906000526020600020905b8154815290600101906020018083116122a657829003601f168201915b5050505050908060070154908060080160009054906101000a900460ff16905089565b6060600160008373ffffffffffffffffffffffffffffffffffffffff1673ffffffffffffffffffffffffffffffffffffffff16815260200190815260200160002060003373ffffffffffffffffffffffffffffffffffffffff1673ffffffffffffffffffffffffffffffffffffffff16815260200190815260200160002060009054906101000a900460ff166123b1576040517f08c379a00000000000000000000000000000000000000000000000000000000081526004016123a890614934565b60405180910390fd5b600260008373ffffffffffffffffffffffffffffffffffffffff1673ffffffffffffffffffffffffffffffffffffffff168152602001908152602001600020805480602002602001604051908101604052809291908181526020016000905b8282101561275c5783829060005260206000209060070201604051806101000160405290816000820154815260200160018201805461244e90614983565b80601f016020809104026020016040519081016040528092919081815260200182805461247a90614983565b80156124c75780601f1061249c576101008083540402835291602001916124c7565b820191906000526020600020905b8154815290600101906020018083116124aa57829003601f168201915b505050505081526020016002820180546124e090614983565b80601f016020809104026020016040519081016040528092919081815260200182805461250c90614983565b80156125595780601f1061252e57610100808354040283529160200191612559565b820191906000526020600020905b81548152906001019060200180831161253c57829003601f168201915b5050505050815260200160038201805461257290614983565b80601f016020809104026020016040519081016040528092919081815260200182805461259e90614983565b80156125eb5780601f106125c0576101008083540402835291602001916125eb565b820191906000526020600020905b8154815290600101906020018083116125ce57829003601f168201915b5050505050815260200160048201805461260490614983565b80601f016020809104026020016040519081016040528092919081815260200182805461263090614983565b801561267d5780601f106126525761010080835404028352916020019161267d565b820191906000526020600020905b81548152906001019060200180831161266057829003601f168201915b505050505081526020016005820160009054906101000a900460ff161515151581526020016005820160019054906101000a900473ffffffffffffffffffffffffffffffffffffffff1673ffffffffffffffffffffffffffffffffffffffff1673ffffffffffffffffffffffffffffffffffffffff1681526020016006820160009054906101000a900473ffffffffffffffffffffffffffffffffffffffff1673ffffffffffffffffffffffffffffffffffffffff1673ffffffffffffffffffffffffffffffffffffffff168152505081526020019060010190612410565b505050509050919050565b6060600660008373ffffffffffffffffffffffffffffffffffffffff1673ffffffffffffffffffffffffffffffffffffffff1681526020019081526020016000208054806020026020016040519081016040528092919081815260200182805480156127f257602002820191906000526020600020905b8154815260200190600101908083116127de575b50505050509050919050565b60008073ffffffffffffffffffffffffffffffffffffffff168a73ffffffffffffffffffffffffffffffffffffffff160361286e576040517f08c379a000000000000000000000000000000000000000000000000000000000815260040161286590614eee565b60405180910390fd5b600087879050116128b4576040517f08c379a00000000000000000000000000000000000000000000000000000000081526004016128ab9061524d565b60405180910390fd5b600089899050116128fa576040517f08c379a00000000000000000000000000000000000000000000000000000000081526004016128f190614f5a565b60405180910390fd5b60008585905011612940576040517f08c379a0000000000000000000000000000000000000000000000000000000008152600401612937906152df565b60405180910390fd5b60006040518061010001604052804281526020018b8b8080601f016020809104026020016040519081016040528093929190818152602001838380828437600081840152601f19601f82011690508083019250505050505050815260200187878080601f016020809104026020016040519081016040528093929190818152602001838380828437600081840152601f19601f82011690508083019250505050505050815260200189898080601f016020809104026020016040519081016040528093929190818152602001838380828437600081840152601f19601f82011690508083019250505050505050815260200185858080601f016020809104026020016040519081016040528093929190818152602001838380828437600081840152601f19601f8201169050808301925050505050505081526020016000151581526020013373ffffffffffffffffffffffffffffffffffffffff168152602001600073ffffffffffffffffffffffffffffffffffffffff168152509050600260008c73ffffffffffffffffffffffffffffffffffffffff1673ffffffffffffffffffffffffffffffffffffffff168152602001908152602001600020819080600181540180825580915050600190039060005260206000209060070201600090919091909150600082015181600001556020820151816001019081612b469190614d64565b506040820151816002019081612b5c9190614d64565b506060820151816003019081612b729190614d64565b506080820151816004019081612b889190614d64565b5060a08201518160050160006101000a81548160ff02191690831515021790555060c08201518160050160016101000a81548173ffffffffffffffffffffffffffffffffffffffff021916908373ffffffffffffffffffffffffffffffffffffffff16021790555060e08201518160060160006101000a81548173ffffffffffffffffffffffffffffffffffffffff021916908373ffffffffffffffffffffffffffffffffffffffff160217905550505060006001600260008e73ffffffffffffffffffffffffffffffffffffffff1673ffffffffffffffffffffffffffffffffffffffff16815260200190815260200160002080549050612c8a91906152ff565b9050808c73ffffffffffffffffffffffffffffffffffffffff167fb19358f02fa5686bdfa77135c87fcc94efa0078493e3aeb25806777b71d055df8d8d8d8d604051612cd99493929190615333565b60405180910390a380925050509998505050505050505050565b6060600760008373ffffffffffffffffffffffffffffffffffffffff1673ffffffffffffffffffffffffffffffffffffffff168152602001908152602001600020805480602002602001604051908101604052809291908181526020018280548015612d7e57602002820191906000526020600020905b815481526020019060010190808311612d6a575b50505050509050919050565b600060405180604001604052808481526020018381525090506000803373ffffffffffffffffffffffffffffffffffffffff1673ffffffffffffffffffffffffffffffffffffffff1681526020019081526020016000208190806001815401808255809150506001900390600052602060002090600202016000909190919091506000820151816000019081612e209190614d64565b506020820151816001019081612e369190614d64565b505050505050565b6004600084815260200190815260200160002060080160009054906101000a900460ff16612ea1576040517f08c379a0000000000000000000000000000000000000000000000000000000008152600401612e9890614a00565b60405180910390fd5b3373ffffffffffffffffffffffffffffffffffffffff166004600085815260200190815260200160002060030160009054906101000a900473ffffffffffffffffffffffffffffffffffffffff1673ffffffffffffffffffffffffffffffffffffffff1614612f45576040517f08c379a0000000000000000000000000000000000000000000000000000000008152600401612f3c906153e0565b60405180910390fd5b8181600460008681526020019081526020016000206006019182612f6a92919061540b565b50827ff4635f6986da230fc46d88309f17fcc758fd9910a66b0529ceeea1a1812b3f378383604051612f9d92919061501e565b60405180910390a2505050565b60606000803373ffffffffffffffffffffffffffffffffffffffff1673ffffffffffffffffffffffffffffffffffffffff168152602001908152602001600020805480602002602001604051908101604052809291908181526020016000905b82821015613160578382906000526020600020906002020160405180604001604052908160008201805461303d90614983565b80601f016020809104026020016040519081016040528092919081815260200182805461306990614983565b80156130b65780601f1061308b576101008083540402835291602001916130b6565b820191906000526020600020905b81548152906001019060200180831161309957829003601f168201915b505050505081526020016001820180546130cf90614983565b80601f01602080910402602001604051908101604052809291908181526020018280546130fb90614983565b80156131485780601f1061311d57610100808354040283529160200191613148565b820191906000526020600020905b81548152906001019060200180831161312b57829003601f168201915b5050505050815250508152602001906001019061300a565b50505050905090565b6060600260008373ffffffffffffffffffffffffffffffffffffffff1673ffffffffffffffffffffffffffffffffffffffff168152602001908152602001600020805480602002602001604051908101604052809291908181526020016000905b828210156135165783829060005260206000209060070201604051806101000160405290816000820154815260200160018201805461320890614983565b80601f016020809104026020016040519081016040528092919081815260200182805461323490614983565b80156132815780601f1061325657610100808354040283529160200191613281565b820191906000526020600020905b81548152906001019060200180831161326457829003601f168201915b5050505050815260200160028201805461329a90614983565b80601f01602080910402602001604051908101604052809291908181526020018280546132c690614983565b80156133135780601f106132e857610100808354040283529160200191613313565b820191906000526020600020905b8154815290600101906020018083116132f657829003601f168201915b5050505050815260200160038201805461332c90614983565b80601f016020809104026020016040519081016040528092919081815260200182805461335890614983565b80156133a55780601f1061337a576101008083540402835291602001916133a5565b820191906000526020600020905b81548152906001019060200180831161338857829003601f168201915b505050505081526020016004820180546133be90614983565b80601f01602080910402602001604051908101604052809291908181526020018280546133ea90614983565b80156134375780601f1061340c57610100808354040283529160200191613437565b820191906000526020600020905b81548152906001019060200180831161341a57829003601f168201915b505050505081526020016005820160009054906101000a900460ff161515151581526020016005820160019054906101000a900473ffffffffffffffffffffffffffffffffffffffff1673ffffffffffffffffffffffffffffffffffffffff1673ffffffffffffffffffffffffffffffffffffffff1681526020016006820160009054906101000a900473ffffffffffffffffffffffffffffffffffffffff1673ffffffffffffffffffffffffffffffffffffffff1673ffffffffffffffffffffffffffffffffffffffff1681525050815260200190600101906131ca565b505050509050919050565b6004600083815260200190815260200160002060080160009054906101000a900460ff16613584576040517f08c379a000000000000000000000000000000000000000000000000000000000815260040161357b90614a00565b60405180910390fd5b3373ffffffffffffffffffffffffffffffffffffffff166004600084815260200190815260200160002060030160009054906101000a900473ffffffffffffffffffffffffffffffffffffffff1673ffffffffffffffffffffffffffffffffffffffff1614613628576040517f08c379a000000000000000000000000000000000000000000000000000000000815260040161361f9061554d565b60405180910390fd5b60006004600084815260200190815260200160002060010160009054906101000a900473ffffffffffffffffffffffffffffffffffffffff169050600260008273ffffffffffffffffffffffffffffffffffffffff1673ffffffffffffffffffffffffffffffffffffffff1681526020019081526020016000208054905082106136e7576040517f08c379a00000000000000000000000000000000000000000000000000000000081526004016136de906150bd565b60405180910390fd5b3373ffffffffffffffffffffffffffffffffffffffff16600260008373ffffffffffffffffffffffffffffffffffffffff1673ffffffffffffffffffffffffffffffffffffffff168152602001908152602001600020838154811061374f5761374e615042565b5b906000526020600020906007020160050160019054906101000a900473ffffffffffffffffffffffffffffffffffffffff1673ffffffffffffffffffffffffffffffffffffffff16146137d7576040517f08c379a00000000000000000000000000000000000000000000000000000000081526004016137ce906155df565b60405180910390fd5b6004600084815260200190815260200160002060020160009054906101000a900473ffffffffffffffffffffffffffffffffffffffff16600260008373ffffffffffffffffffffffffffffffffffffffff1673ffffffffffffffffffffffffffffffffffffffff168152602001908152602001600020838154811061385f5761385e615042565b5b906000526020600020906007020160060160006101000a81548173ffffffffffffffffffffffffffffffffffffffff021916908373ffffffffffffffffffffffffffffffffffffffff1602179055506040518060400160405280600981526020017f434f4d504c4554454400000000000000000000000000000000000000000000008152506004600085815260200190815260200160002060060190816139069190614d64565b50827ff4635f6986da230fc46d88309f17fcc758fd9910a66b0529ceeea1a1812b3f376040516139359061564b565b60405180910390a2505050565b6060600042905061395281613958565b91505090565b60606000820361399f576040518060400160405280600181526020017f30000000000000000000000000000000000000000000000000000000000000008152509050613adb565b600082905060005b600082146139d15780806139ba90614fa9565b915050600a826139ca919061569a565b91506139a7565b60008167ffffffffffffffff8111156139ed576139ec6142ef565b5b6040519080825280601f01601f191660200182016040528015613a1f5781602001600182028036833780820191505090505b50905060008290505b60008614613ad357600181613a3d91906152ff565b90506000600a8088613a4f919061569a565b613a5991906156cb565b87613a6491906152ff565b6030613a70919061571a565b905060008160f81b905080848481518110613a8e57613a8d615042565b5b60200101907effffffffffffffffffffffffffffffffffffffffffffffffffffffffffffff1916908160001a905350600a88613aca919061569a565b97505050613a28565b819450505050505b919050565b60405180610120016040528060008152602001600073ffffffffffffffffffffffffffffffffffffffff168152602001600073ffffffffffffffffffffffffffffffffffffffff168152602001600073ffffffffffffffffffffffffffffffffffffffff168152602001606081526020016060815260200160608152602001600081526020016000151581525090565b6000604051905090565b600080fd5b600080fd5b600073ffffffffffffffffffffffffffffffffffffffff82169050919050565b6000613baf82613b84565b9050919050565b613bbf81613ba4565b8114613bca57600080fd5b50565b600081359050613bdc81613bb6565b92915050565b600060208284031215613bf857613bf7613b7a565b5b6000613c0684828501613bcd565b91505092915050565b600081519050919050565b600082825260208201905092915050565b6000819050602082019050919050565b600081519050919050565b600082825260208201905092915050565b60005b83811015613c75578082015181840152602081019050613c5a565b60008484015250505050565b6000601f19601f8301169050919050565b6000613c9d82613c3b565b613ca78185613c46565b9350613cb7818560208601613c57565b613cc081613c81565b840191505092915050565b60006040830160008301518482036000860152613ce88282613c92565b91505060208301518482036020860152613d028282613c92565b9150508091505092915050565b6000613d1b8383613ccb565b905092915050565b6000602082019050919050565b6000613d3b82613c0f565b613d458185613c1a565b935083602082028501613d5785613c2b565b8060005b85811015613d935784840389528151613d748582613d0f565b9450613d7f83613d23565b925060208a01995050600181019050613d5b565b50829750879550505050505092915050565b60006020820190508181036000830152613dbf8184613d30565b905092915050565b6000819050919050565b613dda81613dc7565b8114613de557600080fd5b50565b600081359050613df781613dd1565b92915050565b600060208284031215613e1357613e12613b7a565b5b6000613e2184828501613de8565b91505092915050565b60008060408385031215613e4157613e40613b7a565b5b6000613e4f85828601613bcd565b9250506020613e6085828601613de8565b9150509250929050565b613e7381613dc7565b82525050565b6000602082019050613e8e6000830184613e6a565b92915050565b600080fd5b600080fd5b600080fd5b60008083601f840112613eb957613eb8613e94565b5b8235905067ffffffffffffffff811115613ed657613ed5613e99565b5b602083019150836001820283011115613ef257613ef1613e9e565b5b9250929050565b600080600080600060608688031215613f1557613f14613b7a565b5b6000613f2388828901613bcd565b955050602086013567ffffffffffffffff811115613f4457613f43613b7f565b5b613f5088828901613ea3565b9450945050604086013567ffffffffffffffff811115613f7357613f72613b7f565b5b613f7f88828901613ea3565b92509250509295509295909350565b613f9781613dc7565b82525050565b613fa681613ba4565b82525050565b60008115159050919050565b613fc181613fac565b82525050565b600061012083016000830151613fe06000860182613f8e565b506020830151613ff36020860182613f9d565b5060408301516140066040860182613f9d565b5060608301516140196060860182613f9d565b50608083015184820360808601526140318282613c92565b91505060a083015184820360a086015261404b8282613c92565b91505060c083015184820360c08601526140658282613c92565b91505060e083015161407a60e0860182613f8e565b5061010083015161408f610100860182613fb8565b508091505092915050565b600060208201905081810360008301526140b48184613fc7565b905092915050565b600082825260208201905092915050565b60006140d882613c3b565b6140e281856140bc565b93506140f2818560208601613c57565b6140fb81613c81565b840191505092915050565b61410f81613fac565b82525050565b61411e81613ba4565b82525050565b60006101008201905061413a600083018b613e6a565b818103602083015261414c818a6140cd565b9050818103604083015261416081896140cd565b9050818103606083015261417481886140cd565b9050818103608083015261418881876140cd565b905061419760a0830186614106565b6141a460c0830185614115565b6141b160e0830184614115565b9998505050505050505050565b600080604083850312156141d5576141d4613b7a565b5b60006141e385828601613bcd565b92505060206141f485828601613bcd565b9150509250929050565b60006020820190506142136000830184614106565b92915050565b600081519050919050565b600082825260208201905092915050565b6000819050602082019050919050565b60006142518383613f8e565b60208301905092915050565b6000602082019050919050565b600061427582614219565b61427f8185614224565b935061428a83614235565b8060005b838110156142bb5781516142a28882614245565b97506142ad8361425d565b92505060018101905061428e565b5085935050505092915050565b600060208201905081810360008301526142e2818461426a565b905092915050565b600080fd5b7f4e487b7100000000000000000000000000000000000000000000000000000000600052604160045260246000fd5b61432782613c81565b810181811067ffffffffffffffff82111715614346576143456142ef565b5b80604052505050565b6000614359613b70565b9050614365828261431e565b919050565b600067ffffffffffffffff821115614385576143846142ef565b5b61438e82613c81565b9050602081019050919050565b82818337600083830152505050565b60006143bd6143b88461436a565b61434f565b9050828152602081018484840111156143d9576143d86142ea565b5b6143e484828561439b565b509392505050565b600082601f83011261440157614400613e94565b5b81356144118482602086016143aa565b91505092915050565b6000602082840312156144305761442f613b7a565b5b600082013567ffffffffffffffff81111561444e5761444d613b7f565b5b61445a848285016143ec565b91505092915050565b600061012082019050614479600083018c613e6a565b614486602083018b614115565b614493604083018a614115565b6144a06060830189614115565b81810360808301526144b281886140cd565b905081810360a08301526144c681876140cd565b905081810360c08301526144da81866140cd565b90506144e960e0830185613e6a565b6144f7610100830184614106565b9a9950505050505050505050565b600081519050919050565b600082825260208201905092915050565b6000819050602082019050919050565b60006101008301600083015161454a6000860182613f8e565b50602083015184820360208601526145628282613c92565b9150506040830151848203604086015261457c8282613c92565b915050606083015184820360608601526145968282613c92565b915050608083015184820360808601526145b08282613c92565b91505060a08301516145c560a0860182613fb8565b5060c08301516145d860c0860182613f9d565b5060e08301516145eb60e0860182613f9d565b508091505092915050565b60006146028383614531565b905092915050565b6000602082019050919050565b600061462282614505565b61462c8185614510565b93508360208202850161463e85614521565b8060005b8581101561467a578484038952815161465b85826145f6565b94506146668361460a565b925060208a01995050600181019050614642565b50829750879550505050505092915050565b600060208201905081810360008301526146a68184614617565b905092915050565b600080600080600080600080600060a08a8c0312156146d0576146cf613b7a565b5b60006146de8c828d01613bcd565b99505060208a013567ffffffffffffffff8111156146ff576146fe613b7f565b5b61470b8c828d01613ea3565b985098505060408a013567ffffffffffffffff81111561472e5761472d613b7f565b5b61473a8c828d01613ea3565b965096505060608a013567ffffffffffffffff81111561475d5761475c613b7f565b5b6147698c828d01613ea3565b945094505060808a013567ffffffffffffffff81111561478c5761478b613b7f565b5b6147988c828d01613ea3565b92509250509295985092959850929598565b600080604083850312156147c1576147c0613b7a565b5b600083013567ffffffffffffffff8111156147df576147de613b7f565b5b6147eb858286016143ec565b925050602083013567ffffffffffffffff81111561480c5761480b613b7f565b5b614818858286016143ec565b9150509250929050565b60008060006040848603121561483b5761483a613b7a565b5b600061484986828701613de8565b935050602084013567ffffffffffffffff81111561486a57614869613b7f565b5b61487686828701613ea3565b92509250509250925092565b6000806040838503121561489957614898613b7a565b5b60006148a785828601613de8565b92505060206148b885828601613de8565b9150509250929050565b7f4163636573732064656e6965643a205065726d697373696f6e206e6f7420677260008201527f616e7465642062792070617469656e742e000000000000000000000000000000602082015250565b600061491e6031836140bc565b9150614929826148c2565b604082019050919050565b6000602082019050818103600083015261494d81614911565b9050919050565b7f4e487b7100000000000000000000000000000000000000000000000000000000600052602260045260246000fd5b6000600282049050600182168061499b57607f821691505b6020821081036149ae576149ad614954565b5b50919050565b7f54657374207265717565737420646f6573206e6f742065786973740000000000600082015250565b60006149ea601b836140bc565b91506149f5826149b4565b602082019050919050565b60006020820190508181036000830152614a19816149dd565b9050919050565b600081905092915050565b7f5245515545535445440000000000000000000000000000000000000000000000600082015250565b6000614a61600983614a20565b9150614a6c82614a2b565b600982019050919050565b6000614a8282614a54565b9150819050919050565b60008190508160005260206000209050919050565b60008154614aae81614983565b614ab88186614a20565b94506001821660008114614ad35760018114614ae857614b1b565b60ff1983168652811515820286019350614b1b565b614af185614a8c565b60005b83811015614b1357815481890152600182019150602081019050614af4565b838801955050505b50505092915050565b6000614b308284614aa1565b915081905092915050565b7f546573742072657175657374206973206e6f7420696e2052455155455354454460008201527f2073746174757300000000000000000000000000000000000000000000000000602082015250565b6000614b976027836140bc565b9150614ba282614b3b565b604082019050919050565b60006020820190508181036000830152614bc681614b8a565b9050919050565b60006020601f8301049050919050565b600082821b905092915050565b600060088302614c1a7fffffffffffffffffffffffffffffffffffffffffffffffffffffffffffffffff82614bdd565b614c248683614bdd565b95508019841693508086168417925050509392505050565b6000819050919050565b6000614c61614c5c614c5784613dc7565b614c3c565b613dc7565b9050919050565b6000819050919050565b614c7b83614c46565b614c8f614c8782614c68565b848454614bea565b825550505050565b600090565b614ca4614c97565b614caf818484614c72565b505050565b5b81811015614cd357614cc8600082614c9c565b600181019050614cb5565b5050565b601f821115614d1857614ce981614a8c565b614cf284614bcd565b81016020851015614d01578190505b614d15614d0d85614bcd565b830182614cb4565b50505b505050565b600082821c905092915050565b6000614d3b60001984600802614d1d565b1980831691505092915050565b6000614d548383614d2a565b9150826002028217905092915050565b614d6d82613c3b565b67ffffffffffffffff811115614d8657614d856142ef565b5b614d908254614983565b614d9b828285614cd7565b600060209050601f831160018114614dce5760008415614dbc578287015190505b614dc68582614d48565b865550614e2e565b601f198416614ddc86614a8c565b60005b82811015614e0457848901518255600182019150602085019450602081019050614ddf565b86831015614e215784890151614e1d601f891682614d2a565b8355505b6001600288020188555050505b505050505050565b7f494e5f50524f4752455353000000000000000000000000000000000000000000600082015250565b6000614e6c600b836140bc565b9150614e7782614e36565b602082019050919050565b60006020820190508181036000830152614e9b81614e5f565b9050919050565b7f496e76616c69642070617469656e742061646472657373000000000000000000600082015250565b6000614ed86017836140bc565b9150614ee382614ea2565b602082019050919050565b60006020820190508181036000830152614f0781614ecb565b9050919050565b7f5465737420747970652063616e6e6f7420626520656d70747900000000000000600082015250565b6000614f446019836140bc565b9150614f4f82614f0e565b602082019050919050565b60006020820190508181036000830152614f7381614f37565b9050919050565b7f4e487b7100000000000000000000000000000000000000000000000000000000600052601160045260246000fd5b6000614fb482613dc7565b91507fffffffffffffffffffffffffffffffffffffffffffffffffffffffffffffffff8203614fe657614fe5614f7a565b5b600182019050919050565b6000614ffd83856140bc565b935061500a83858461439b565b61501383613c81565b840190509392505050565b60006020820190508181036000830152615039818486614ff1565b90509392505050565b7f4e487b7100000000000000000000000000000000000000000000000000000000600052603260045260246000fd5b7f496e76616c6964207265706f727420696e646578000000000000000000000000600082015250565b60006150a76014836140bc565b91506150b282615071565b602082019050919050565b600060208201905081810360008301526150d68161509a565b9050919050565b7f4f6e6c792074686520646961676e6f737469632063656e74657220746861742060008201527f6372656174656420746865207265706f72742063616e20617070726f7665206960208201527f7400000000000000000000000000000000000000000000000000000000000000604082015250565b600061515f6041836140bc565b915061516a826150dd565b606082019050919050565b6000602082019050818103600083015261518e81615152565b9050919050565b7f5265706f727420697320616c726561647920617070726f766564000000000000600082015250565b60006151cb601a836140bc565b91506151d682615195565b602082019050919050565b600060208201905081810360008301526151fa816151be565b9050919050565b7f4950465320686173682063616e6e6f7420626520656d70747900000000000000600082015250565b60006152376019836140bc565b915061524282615201565b602082019050919050565b600060208201905081810360008301526152668161522a565b9050919050565b7f446961676e6f737469632063656e746572206e616d652063616e6e6f7420626560008201527f20656d7074790000000000000000000000000000000000000000000000000000602082015250565b60006152c96026836140bc565b91506152d48261526d565b604082019050919050565b600060208201905081810360008301526152f8816152bc565b9050919050565b600061530a82613dc7565b915061531583613dc7565b925082820390508181111561532d5761532c614f7a565b5b92915050565b6000604082019050818103600083015261534e818688614ff1565b90508181036020830152615363818486614ff1565b905095945050505050565b7f4f6e6c792061737369676e656420646961676e6f737469632063616e2075706460008201527f6174652073746174757300000000000000000000000000000000000000000000602082015250565b60006153ca602a836140bc565b91506153d58261536e565b604082019050919050565b600060208201905081810360008301526153f9816153bd565b9050919050565b600082905092915050565b6154158383615400565b67ffffffffffffffff81111561542e5761542d6142ef565b5b6154388254614983565b615443828285614cd7565b6000601f8311600181146154725760008415615460578287013590505b61546a8582614d48565b8655506154d2565b601f19841661548086614a8c565b60005b828110156154a857848901358255600182019150602085019450602081019050615483565b868310156154c557848901356154c1601f891682614d2a565b8355505b6001600288020188555050505b50505050505050565b7f4f6e6c792061737369676e656420646961676e6f737469632063616e206c696e60008201527f6b207265706f7274000000000000000000000000000000000000000000000000602082015250565b60006155376028836140bc565b9150615542826154db565b604082019050919050565b600060208201905081810360008301526155668161552a565b9050919050565b7f5265706f727420646f6573206e6f742062656c6f6e6720746f2074686973206460008201527f6961676e6f737469630000000000000000000000000000000000000000000000602082015250565b60006155c96029836140bc565b91506155d48261556d565b604082019050919050565b600060208201905081810360008301526155f8816155bc565b9050919050565b7f434f4d504c455445440000000000000000000000000000000000000000000000600082015250565b60006156356009836140bc565b9150615640826155ff565b602082019050919050565b6000602082019050818103600083015261566481615628565b9050919050565b7f4e487b7100000000000000000000000000000000000000000000000000000000600052601260045260246000fd5b60006156a582613dc7565b91506156b083613dc7565b9250826156c0576156bf61566b565b5b828204905092915050565b60006156d682613dc7565b91506156e183613dc7565b92508282026156ef81613dc7565b9150828204841483151761570657615705614f7a565b5b5092915050565b600060ff82169050919050565b60006157258261570d565b91506157308361570d565b9250828201905060ff81111561574957615748614f7a565b5b9291505056fea264697066735822122048cd3ab3ec4ee777945186a44efb4bbcd3bb51a896c7660090363a871a1efc0864736f6c63430008130033",
  "immutableReferences": {},
  "source": "// SPDX-License-Identifier: MIT\r\npragma solidity ^0.8.19;\r\n\r\ncontract UploadEhr {\r\n    struct PatientRecord {\r\n        string timeStamp;\r\n        string medicalRecordHash;\r\n    }\r\n\r\n    struct DiagnosticReport {\r\n        uint256 timestamp;\r\n        string testType;\r\n        string diagnosticCenter;\r\n        string medicalReportHash; // IPFS CID\r\n        string description;\r\n        bool isApproved;\r\n        address diagnosticAddress;\r\n        address doctorAddress; // Doctor who requested the test\r\n    }\r\n\r\n    struct TestRequest {\r\n        uint256 requestId;\r\n        address patient;\r\n        address doctor;\r\n        address diagnostic;\r\n        string testType;\r\n        string description;\r\n        string status; // \"REQUESTED\", \"IN_PROGRESS\", \"COMPLETED\", \"APPROVED\"\r\n        uint256 timestamp;\r\n        bool exists;\r\n    }\r\n\r\n    // Mapping from patient address to their records\r\n    mapping(address => PatientRecord[]) private records;\r\n    \r\n    // Mapping from patient address to doctor address to permission\r\n    mapping(address => mapping(address => bool)) public patientToDoctorPermission;\r\n\r\n    // Mapping from patient address to diagnostic reports\r\n    mapping(address => DiagnosticReport[]) public diagnosticReports;\r\n\r\n    // Mapping from diagnostic center address to patient address to permission\r\n    mapping(address => mapping(address => bool)) public diagnosticToPatientPermission;\r\n\r\n    // Test requests mapping\r\n    mapping(uint256 => TestRequest) public testRequests;\r\n    mapping(address => uint256[]) public diagnosticRequests; // diagnostic address => request IDs\r\n    mapping(address => uint256[]) public doctorTestRequests; // doctor address => request IDs\r\n    mapping(address => uint256[]) public patientTestRequests; // patient address => request IDs\r\n\r\n    uint256 private requestCounter = 0;\r\n\r\n    // Events\r\n    event TestRequested(uint256 indexed requestId, address indexed patient, address indexed doctor, string testType);\r\n    event TestAssigned(uint256 indexed requestId, address indexed diagnostic);\r\n    event TestStatusUpdated(uint256 indexed requestId, string status);\r\n    event DiagnosticReportUploaded(address indexed patient, uint256 indexed reportIndex, string testType, string ipfsHash);\r\n    event DiagnosticReportApproved(address indexed patient, uint256 indexed reportIndex);\r\n\r\n    // Upload a record (patient only)\r\n    function uploadRecord(string memory ipfsHash) public {\r\n        string memory timestamp = _getCurrentTimestamp();\r\n        PatientRecord memory newRecord = PatientRecord(\r\n            timestamp,\r\n            ipfsHash\r\n        );\r\n        records[msg.sender].push(newRecord);\r\n    }\r\n\r\n    // Legacy function for backward compatibility\r\n    function addRecord(string memory _timeStamp, string memory _medicalRecordHash) public {\r\n        PatientRecord memory newRecord = PatientRecord(\r\n            _timeStamp,\r\n            _medicalRecordHash\r\n        );\r\n        records[msg.sender].push(newRecord);\r\n    }\r\n\r\n    // Get patient's own records\r\n    function getMyRecords() public view returns (PatientRecord[] memory) {\r\n        return records[msg.sender];\r\n    }\r\n\r\n    // Legacy function for backward compatibility\r\n    function getRecords() public view returns (PatientRecord[] memory) {\r\n        return records[msg.sender];\r\n    }\r\n\r\n    // Grant access to a doctor\r\n    function grantAccessToDoctor(address doctor) public {\r\n        patientToDoctorPermission[msg.sender][doctor] = true;\r\n    }\r\n\r\n    // Revoke access from a doctor\r\n    function revokeAccessFromDoctor(address doctor) public {\r\n        patientToDoctorPermission[msg.sender][doctor] = false;\r\n    }\r\n\r\n    // Doctor can get patient records if permission is granted\r\n    function getPatientRecords(address patient) public view returns (PatientRecord[] memory) {\r\n        require(\r\n            patientToDoctorPermission[patient][msg.sender],\r\n            \"Access denied: Permission not granted by patient.\"\r\n        );\r\n        return records[patient];\r\n    }\r\n\r\n    // Helper function to get current timestamp\r\n    function _getCurrentTimestamp() private view returns (string memory) {\r\n        // Solidity doesn't have native timestamp to string conversion\r\n        // We'll use block.timestamp and convert it\r\n        uint256 timestamp = block.timestamp;\r\n        return _uintToString(timestamp);\r\n    }\r\n\r\n    // Helper function to convert uint to string\r\n    function _uintToString(uint256 v) private pure returns (string memory) {\r\n        if (v == 0) {\r\n            return \"0\";\r\n        }\r\n        uint256 j = v;\r\n        uint256 len;\r\n        while (j != 0) {\r\n            len++;\r\n            j /= 10;\r\n        }\r\n        bytes memory bstr = new bytes(len);\r\n        uint256 k = len;\r\n        while (v != 0) {\r\n            k = k - 1;\r\n            uint8 temp = (48 + uint8(v - v / 10 * 10));\r\n            bytes1 b1 = bytes1(temp);\r\n            bstr[k] = b1;\r\n            v /= 10;\r\n        }\r\n        return string(bstr);\r\n    }\r\n\r\n    // ==================== DIAGNOSTIC MODULE FUNCTIONS ====================\r\n\r\n    /**\r\n     * @notice Doctor requests a test for a patient\r\n     * @param patient Address of the patient\r\n     * @param testType Type of test (e.g., \"Blood\", \"MRI\", \"CT\", \"X-Ray\", \"Urine\")\r\n     * @param description Description of the test request\r\n     * @return requestId The ID of the created test request\r\n     */\r\n    function requestTest(\r\n        address patient,\r\n        string calldata testType,\r\n        string calldata description\r\n    ) external returns (uint256) {\r\n        require(patient != address(0), \"Invalid patient address\");\r\n        require(bytes(testType).length > 0, \"Test type cannot be empty\");\r\n        \r\n        // Note: In production, add check to verify msg.sender is a registered doctor\r\n        // For now, we'll allow any address to request (can be restricted later)\r\n\r\n        requestCounter++;\r\n        uint256 requestId = requestCounter;\r\n\r\n        TestRequest memory newRequest = TestRequest({\r\n            requestId: requestId,\r\n            patient: patient,\r\n            doctor: msg.sender,\r\n            diagnostic: address(0), // Not assigned yet\r\n            testType: testType,\r\n            description: description,\r\n            status: \"REQUESTED\",\r\n            timestamp: block.timestamp,\r\n            exists: true\r\n        });\r\n\r\n        testRequests[requestId] = newRequest;\r\n        doctorTestRequests[msg.sender].push(requestId);\r\n        patientTestRequests[patient].push(requestId);\r\n\r\n        emit TestRequested(requestId, patient, msg.sender, testType);\r\n        return requestId;\r\n    }\r\n\r\n    /**\r\n     * @notice Diagnostic center assigns a test request to themselves\r\n     * @param requestId ID of the test request\r\n     */\r\n    function assignTest(uint256 requestId) external {\r\n        require(testRequests[requestId].exists, \"Test request does not exist\");\r\n        require(\r\n            keccak256(abi.encodePacked(testRequests[requestId].status)) == keccak256(abi.encodePacked(\"REQUESTED\")),\r\n            \"Test request is not in REQUESTED status\"\r\n        );\r\n\r\n        testRequests[requestId].diagnostic = msg.sender;\r\n        testRequests[requestId].status = \"IN_PROGRESS\";\r\n        \r\n        diagnosticRequests[msg.sender].push(requestId);\r\n\r\n        emit TestAssigned(requestId, msg.sender);\r\n        emit TestStatusUpdated(requestId, \"IN_PROGRESS\");\r\n    }\r\n\r\n    /**\r\n     * @notice Diagnostic center uploads a diagnostic report\r\n     * @param patient Address of the patient\r\n     * @param testType Type of test performed\r\n     * @param ipfsHash IPFS CID of the uploaded report file\r\n     * @param diagnosticCenter Name of the diagnostic center\r\n     * @param description Description of the report\r\n     * @return reportIndex Index of the uploaded report\r\n     */\r\n    function uploadDiagnosticReport(\r\n        address patient,\r\n        string calldata testType,\r\n        string calldata ipfsHash,\r\n        string calldata diagnosticCenter,\r\n        string calldata description\r\n    ) external returns (uint256) {\r\n        require(patient != address(0), \"Invalid patient address\");\r\n        require(bytes(ipfsHash).length > 0, \"IPFS hash cannot be empty\");\r\n        require(bytes(testType).length > 0, \"Test type cannot be empty\");\r\n        require(bytes(diagnosticCenter).length > 0, \"Diagnostic center name cannot be empty\");\r\n\r\n        // Note: In production, add check to verify msg.sender is a registered diagnostic center\r\n        // For now, we'll allow any address to upload (can be restricted later)\r\n\r\n        DiagnosticReport memory newReport = DiagnosticReport({\r\n            timestamp: block.timestamp,\r\n            testType: testType,\r\n            diagnosticCenter: diagnosticCenter,\r\n            medicalReportHash: ipfsHash,\r\n            description: description,\r\n            isApproved: false,\r\n            diagnosticAddress: msg.sender,\r\n            doctorAddress: address(0) // Will be set if linked to a request\r\n        });\r\n\r\n        diagnosticReports[patient].push(newReport);\r\n        uint256 reportIndex = diagnosticReports[patient].length - 1;\r\n\r\n        emit DiagnosticReportUploaded(patient, reportIndex, testType, ipfsHash);\r\n        return reportIndex;\r\n    }\r\n\r\n    /**\r\n     * @notice Link a diagnostic report to a test request and mark as completed\r\n     * @param requestId ID of the test request\r\n     * @param reportIndex Index of the diagnostic report\r\n     */\r\n    function linkReportToRequest(uint256 requestId, uint256 reportIndex) external {\r\n        require(testRequests[requestId].exists, \"Test request does not exist\");\r\n        require(\r\n            testRequests[requestId].diagnostic == msg.sender,\r\n            \"Only assigned diagnostic can link report\"\r\n        );\r\n\r\n        address patient = testRequests[requestId].patient;\r\n        require(\r\n            reportIndex < diagnosticReports[patient].length,\r\n            \"Invalid report index\"\r\n        );\r\n        require(\r\n            diagnosticReports[patient][reportIndex].diagnosticAddress == msg.sender,\r\n            \"Report does not belong to this diagnostic\"\r\n        );\r\n\r\n        diagnosticReports[patient][reportIndex].doctorAddress = testRequests[requestId].doctor;\r\n        testRequests[requestId].status = \"COMPLETED\";\r\n        \r\n        emit TestStatusUpdated(requestId, \"COMPLETED\");\r\n    }\r\n\r\n    /**\r\n     * @notice Diagnostic center approves a diagnostic report\r\n     * @param patient Address of the patient\r\n     * @param reportIndex Index of the report to approve\r\n     */\r\n    function approveDiagnosticReport(address patient, uint256 reportIndex) external {\r\n        require(\r\n            reportIndex < diagnosticReports[patient].length,\r\n            \"Invalid report index\"\r\n        );\r\n        require(\r\n            diagnosticReports[patient][reportIndex].diagnosticAddress == msg.sender,\r\n            \"Only the diagnostic center that created the report can approve it\"\r\n        );\r\n        require(\r\n            !diagnosticReports[patient][reportIndex].isApproved,\r\n            \"Report is already approved\"\r\n        );\r\n\r\n        diagnosticReports[patient][reportIndex].isApproved = true;\r\n        \r\n        emit DiagnosticReportApproved(patient, reportIndex);\r\n    }\r\n\r\n    /**\r\n     * @notice Get all diagnostic reports for a patient\r\n     * @param patient Address of the patient\r\n     * @return reports Array of DiagnosticReport structs\r\n     */\r\n    function getDiagnosticReports(address patient) public view returns (DiagnosticReport[] memory) {\r\n        return diagnosticReports[patient];\r\n    }\r\n\r\n    /**\r\n     * @notice Get diagnostic reports for a patient (for doctors with permission)\r\n     * @param patient Address of the patient\r\n     * @return reports Array of DiagnosticReport structs\r\n     */\r\n    function getDiagnosticReportsForDoctor(address patient) public view returns (DiagnosticReport[] memory) {\r\n        require(\r\n            patientToDoctorPermission[patient][msg.sender],\r\n            \"Access denied: Permission not granted by patient.\"\r\n        );\r\n        return diagnosticReports[patient];\r\n    }\r\n\r\n    /**\r\n     * @notice Get test requests for a diagnostic center\r\n     * @param diagnostic Address of the diagnostic center\r\n     * @return requestIds Array of request IDs\r\n     */\r\n    function getDiagnosticRequests(address diagnostic) public view returns (uint256[] memory) {\r\n        return diagnosticRequests[diagnostic];\r\n    }\r\n\r\n    /**\r\n     * @notice Get test requests for a doctor\r\n     * @param doctor Address of the doctor\r\n     * @return requestIds Array of request IDs\r\n     */\r\n    function getDoctorTestRequests(address doctor) public view returns (uint256[] memory) {\r\n        return doctorTestRequests[doctor];\r\n    }\r\n\r\n    /**\r\n     * @notice Get test requests for a patient\r\n     * @param patient Address of the patient\r\n     * @return requestIds Array of request IDs\r\n     */\r\n    function getPatientTestRequests(address patient) public view returns (uint256[] memory) {\r\n        return patientTestRequests[patient];\r\n    }\r\n\r\n    /**\r\n     * @notice Get details of a test request\r\n     * @param requestId ID of the test request\r\n     * @return Test request details\r\n     */\r\n    function getTestRequest(uint256 requestId) public view returns (TestRequest memory) {\r\n        require(testRequests[requestId].exists, \"Test request does not exist\");\r\n        return testRequests[requestId];\r\n    }\r\n\r\n    /**\r\n     * @notice Update test request status (for internal use)\r\n     * @param requestId ID of the test request\r\n     * @param newStatus New status\r\n     */\r\n    function updateTestStatus(uint256 requestId, string calldata newStatus) external {\r\n        require(testRequests[requestId].exists, \"Test request does not exist\");\r\n        require(\r\n            testRequests[requestId].diagnostic == msg.sender,\r\n            \"Only assigned diagnostic can update status\"\r\n        );\r\n\r\n        testRequests[requestId].status = newStatus;\r\n        emit TestStatusUpdated(requestId, newStatus);\r\n    }\r\n\r\n    /**\r\n     * @notice Get all pending requests (not assigned to any diagnostic)\r\n     * @return requestIds Array of request IDs that are REQUESTED status\r\n     */\r\n    function getPendingRequests() public view returns (uint256[] memory) {\r\n        uint256[] memory pending = new uint256[](requestCounter);\r\n        uint256 count = 0;\r\n        \r\n        for (uint256 i = 1; i <= requestCounter; i++) {\r\n            if (\r\n                testRequests[i].exists &&\r\n                keccak256(abi.encodePacked(testRequests[i].status)) == keccak256(abi.encodePacked(\"REQUESTED\")) &&\r\n                testRequests[i].diagnostic == address(0)\r\n            ) {\r\n                pending[count] = i;\r\n                count++;\r\n            }\r\n        }\r\n        \r\n        // Resize array\r\n        uint256[] memory result = new uint256[](count);\r\n        for (uint256 i = 0; i < count; i++) {\r\n            result[i] = pending[i];\r\n        }\r\n        \r\n        return result;\r\n    }\r\n}\r\n\r\n",
  "sourcePath": "D:\\ehr_major_project\\ProjectEHR\\src\\contracts\\UploadEhr.sol",
  "compiler": {
    "name": "solc",
    "version": "0.8.19+commit.7dd6d404.Emscripten.clang"
  },
  "schemaVersion": "3.4.16",
  "updatedAt": "2025-12-03T09:17:43.813Z",
  "networkType": "ethereum",
  "devdoc": {
    "kind": "dev",
    "methods": {
      "approveDiagnosticReport(address,uint256)": {
        "params": {
          "patient": "Address of the patient",
          "reportIndex": "Index of the report to approve"
        }
      },
      "assignTest(uint256)": {
        "params": {
          "requestId": "ID of the test request"
        }
      },
      "getDiagnosticReports(address)": {
        "params": {
          "patient": "Address of the patient"
        },
        "returns": {
          "_0": "reports Array of DiagnosticReport structs"
        }
      },
      "getDiagnosticReportsForDoctor(address)": {
        "params": {
          "patient": "Address of the patient"
        },
        "returns": {
          "_0": "reports Array of DiagnosticReport structs"
        }
      },
      "getDiagnosticRequests(address)": {
        "params": {
          "diagnostic": "Address of the diagnostic center"
        },
        "returns": {
          "_0": "requestIds Array of request IDs"
        }
      },
      "getDoctorTestRequests(address)": {
        "params": {
          "doctor": "Address of the doctor"
        },
        "returns": {
          "_0": "requestIds Array of request IDs"
        }
      },
      "getPatientTestRequests(address)": {
        "params": {
          "patient": "Address of the patient"
        },
        "returns": {
          "_0": "requestIds Array of request IDs"
        }
      },
      "getPendingRequests()": {
        "returns": {
          "_0": "requestIds Array of request IDs that are REQUESTED status"
        }
      },
      "getTestRequest(uint256)": {
        "params": {
          "requestId": "ID of the test request"
        },
        "returns": {
          "_0": "Test request details"
        }
      },
      "linkReportToRequest(uint256,uint256)": {
        "params": {
          "reportIndex": "Index of the diagnostic report",
          "requestId": "ID of the test request"
        }
      },
      "requestTest(address,string,string)": {
        "params": {
          "description": "Description of the test request",
          "patient": "Address of the patient",
          "testType": "Type of test (e.g., \"Blood\", \"MRI\", \"CT\", \"X-Ray\", \"Urine\")"
        },
        "returns": {
          "_0": "requestId The ID of the created test request"
        }
      },
      "updateTestStatus(uint256,string)": {
        "params": {
          "newStatus": "New status",
          "requestId": "ID of the test request"
        }
      },
      "uploadDiagnosticReport(address,string,string,string,string)": {
        "params": {
          "description": "Description of the report",
          "diagnosticCenter": "Name of the diagnostic center",
          "ipfsHash": "IPFS CID of the uploaded report file",
          "patient": "Address of the patient",
          "testType": "Type of test performed"
        },
        "returns": {
          "_0": "reportIndex Index of the uploaded report"
        }
      }
    },
    "version": 1
  },
  "userdoc": {
    "kind": "user",
    "methods": {
      "approveDiagnosticReport(address,uint256)": {
        "notice": "Diagnostic center approves a diagnostic report"
      },
      "assignTest(uint256)": {
        "notice": "Diagnostic center assigns a test request to themselves"
      },
      "getDiagnosticReports(address)": {
        "notice": "Get all diagnostic reports for a patient"
      },
      "getDiagnosticReportsForDoctor(address)": {
        "notice": "Get diagnostic reports for a patient (for doctors with permission)"
      },
      "getDiagnosticRequests(address)": {
        "notice": "Get test requests for a diagnostic center"
      },
      "getDoctorTestRequests(address)": {
        "notice": "Get test requests for a doctor"
      },
      "getPatientTestRequests(address)": {
        "notice": "Get test requests for a patient"
      },
      "getPendingRequests()": {
        "notice": "Get all pending requests (not assigned to any diagnostic)"
      },
      "getTestRequest(uint256)": {
        "notice": "Get details of a test request"
      },
      "linkReportToRequest(uint256,uint256)": {
        "notice": "Link a diagnostic report to a test request and mark as completed"
      },
      "requestTest(address,string,string)": {
        "notice": "Doctor requests a test for a patient"
      },
      "updateTestStatus(uint256,string)": {
        "notice": "Update test request status (for internal use)"
      },
      "uploadDiagnosticReport(address,string,string,string,string)": {
        "notice": "Diagnostic center uploads a diagnostic report"
      }
    },
    "version": 1
  }
}